{
  "_format": "hh-sol-artifact-1",
  "contractName": "ChainScore",
  "sourceName": "contracts/ChainScore.sol",
  "abi": [
    {
      "inputs": [
        {
          "internalType": "string",
          "name": "contractID",
          "type": "string"
        },
        {
          "internalType": "uint256",
          "name": "paymentDate",
          "type": "uint256"
        },
        {
          "internalType": "uint256",
          "name": "amount",
          "type": "uint256"
        }
      ],
      "name": "addBusinessContractPayment",
      "outputs": [],
      "stateMutability": "nonpayable",
      "type": "function"
    },
    {
      "inputs": [
        {
          "internalType": "string",
          "name": "",
          "type": "string"
        }
      ],
      "name": "companyContracts",
      "outputs": [
        {
          "internalType": "string",
          "name": "contractID",
          "type": "string"
        },
        {
          "internalType": "address",
          "name": "fromWallet",
          "type": "address"
        },
        {
          "internalType": "address",
          "name": "toWallet",
          "type": "address"
        },
        {
          "internalType": "uint256",
          "name": "amount",
          "type": "uint256"
        },
        {
          "internalType": "uint256",
          "name": "paymentDate",
          "type": "uint256"
        },
        {
          "internalType": "uint256",
          "name": "startDate",
          "type": "uint256"
        },
        {
          "internalType": "uint256",
          "name": "createdAt",
          "type": "uint256"
        }
      ],
      "stateMutability": "view",
      "type": "function"
    },
    {
      "inputs": [
        {
          "internalType": "string",
          "name": "a",
          "type": "string"
        },
        {
          "internalType": "string",
          "name": "b",
          "type": "string"
        }
      ],
      "name": "compareStrings",
      "outputs": [
        {
          "internalType": "bool",
          "name": "",
          "type": "bool"
        }
      ],
      "stateMutability": "pure",
      "type": "function"
    },
    {
      "inputs": [
        {
          "internalType": "uint256",
          "name": "",
          "type": "uint256"
        }
      ],
      "name": "contractIds",
      "outputs": [
        {
          "internalType": "string",
          "name": "",
          "type": "string"
        }
      ],
      "stateMutability": "view",
      "type": "function"
    },
    {
      "inputs": [],
      "name": "createAndReturnOpenContractIds",
      "outputs": [
        {
          "internalType": "string[]",
          "name": "",
          "type": "string[]"
        }
      ],
      "stateMutability": "pure",
      "type": "function"
    },
    {
      "inputs": [
        {
          "internalType": "string",
          "name": "contractId",
          "type": "string"
        }
      ],
      "name": "getContractDetail",
      "outputs": [
        {
          "components": [
            {
              "internalType": "string",
              "name": "contractID",
              "type": "string"
            },
            {
              "internalType": "address",
              "name": "fromWallet",
              "type": "address"
            },
            {
              "internalType": "address",
              "name": "toWallet",
              "type": "address"
            },
            {
              "internalType": "uint256",
              "name": "amount",
              "type": "uint256"
            },
            {
              "internalType": "uint256",
              "name": "paymentDate",
              "type": "uint256"
            },
            {
              "internalType": "uint256",
              "name": "startDate",
              "type": "uint256"
            },
            {
              "internalType": "uint256",
              "name": "createdAt",
              "type": "uint256"
            }
          ],
          "internalType": "struct ChainScore.companyContract",
          "name": "",
          "type": "tuple"
        }
      ],
      "stateMutability": "view",
      "type": "function"
    },
    {
      "inputs": [
        {
          "internalType": "string",
          "name": "_contractId",
          "type": "string"
        }
      ],
      "name": "getContractStatus",
      "outputs": [
        {
          "internalType": "string",
          "name": "",
          "type": "string"
        }
      ],
      "stateMutability": "view",
      "type": "function"
    },
    {
      "inputs": [
        {
          "internalType": "string",
          "name": "contractId",
          "type": "string"
        }
      ],
      "name": "getPaymentHistory",
      "outputs": [
        {
          "components": [
            {
              "internalType": "string",
              "name": "contractId",
              "type": "string"
            },
            {
              "internalType": "uint256",
              "name": "paymentDate",
              "type": "uint256"
            },
            {
              "internalType": "uint256",
              "name": "amount",
              "type": "uint256"
            }
          ],
          "internalType": "struct ChainScore.userPayment[]",
          "name": "",
          "type": "tuple[]"
        }
      ],
      "stateMutability": "view",
      "type": "function"
    },
    {
      "inputs": [
        {
          "internalType": "address",
          "name": "walletAddress",
          "type": "address"
        }
      ],
      "name": "getTrustScore",
      "outputs": [
        {
          "internalType": "uint256",
          "name": "",
          "type": "uint256"
        }
      ],
      "stateMutability": "view",
      "type": "function"
    },
    {
      "inputs": [
        {
          "internalType": "address",
          "name": "walletAddress",
          "type": "address"
        }
      ],
      "name": "getWalletContracts",
      "outputs": [
        {
          "components": [
            {
              "internalType": "string",
              "name": "contractID",
              "type": "string"
            },
            {
              "internalType": "address",
              "name": "fromWallet",
              "type": "address"
            },
            {
              "internalType": "address",
              "name": "toWallet",
              "type": "address"
            },
            {
              "internalType": "uint256",
              "name": "amount",
              "type": "uint256"
            },
            {
              "internalType": "uint256",
              "name": "paymentDate",
              "type": "uint256"
            },
            {
              "internalType": "uint256",
              "name": "startDate",
              "type": "uint256"
            },
            {
              "internalType": "uint256",
              "name": "createdAt",
              "type": "uint256"
            }
          ],
          "internalType": "struct ChainScore.companyContract[]",
          "name": "",
          "type": "tuple[]"
        }
      ],
      "stateMutability": "view",
      "type": "function"
    },
    {
      "inputs": [
        {
          "internalType": "address",
          "name": "walletAddress",
          "type": "address"
        }
      ],
      "name": "getWalletContractsIds",
      "outputs": [
        {
          "internalType": "string[]",
          "name": "",
          "type": "string[]"
        }
      ],
      "stateMutability": "view",
      "type": "function"
    },
    {
      "inputs": [
        {
          "internalType": "string",
          "name": "contractID",
          "type": "string"
        },
        {
          "internalType": "address",
          "name": "fromWallet",
          "type": "address"
        },
        {
          "internalType": "address",
          "name": "toWallet",
          "type": "address"
        },
        {
          "internalType": "uint256",
          "name": "amount",
          "type": "uint256"
        },
        {
          "internalType": "uint256",
          "name": "paymentDate",
          "type": "uint256"
        },
        {
          "internalType": "uint256",
          "name": "startDate",
          "type": "uint256"
        }
      ],
      "name": "initializeBusinessContract",
      "outputs": [],
      "stateMutability": "nonpayable",
      "type": "function"
    },
    {
      "inputs": [
        {
          "internalType": "string",
          "name": "contractID",
          "type": "string"
        }
      ],
      "name": "payContract",
      "outputs": [],
      "stateMutability": "payable",
      "type": "function"
    },
    {
      "inputs": [
        {
          "internalType": "string",
          "name": "_contractId",
          "type": "string"
        },
        {
          "internalType": "string",
          "name": "_status",
          "type": "string"
        }
      ],
      "name": "setContractStatus",
      "outputs": [],
      "stateMutability": "nonpayable",
      "type": "function"
    },
    {
      "inputs": [
        {
          "internalType": "address",
          "name": "",
          "type": "address"
        },
        {
          "internalType": "uint256",
          "name": "",
          "type": "uint256"
        }
      ],
      "name": "trustScorePerContracts",
      "outputs": [
        {
          "internalType": "string",
          "name": "contractId",
          "type": "string"
        },
        {
          "internalType": "address",
          "name": "walletAddress",
          "type": "address"
        },
        {
          "internalType": "uint256",
          "name": "score",
          "type": "uint256"
        }
      ],
      "stateMutability": "view",
      "type": "function"
    },
    {
      "inputs": [
        {
          "internalType": "address",
          "name": "",
          "type": "address"
        },
        {
          "internalType": "uint256",
          "name": "",
          "type": "uint256"
        }
      ],
      "name": "trustScores",
      "outputs": [
        {
          "internalType": "address",
          "name": "walletAddress",
          "type": "address"
        },
        {
          "internalType": "uint256",
          "name": "avScore",
          "type": "uint256"
        },
        {
          "internalType": "uint256",
          "name": "lastUpdatedAt",
          "type": "uint256"
        }
      ],
      "stateMutability": "view",
      "type": "function"
    },
    {
      "inputs": [
        {
          "internalType": "address",
          "name": "walletAddress",
          "type": "address"
        },
        {
          "internalType": "uint256",
          "name": "score",
          "type": "uint256"
        },
        {
          "internalType": "string",
          "name": "contractId",
          "type": "string"
        }
      ],
      "name": "updateTrustScore",
      "outputs": [],
      "stateMutability": "nonpayable",
      "type": "function"
    },
    {
      "inputs": [
        {
          "internalType": "string",
          "name": "",
          "type": "string"
        },
        {
          "internalType": "uint256",
          "name": "",
          "type": "uint256"
        }
      ],
      "name": "userPayments",
      "outputs": [
        {
          "internalType": "string",
          "name": "contractId",
          "type": "string"
        },
        {
          "internalType": "uint256",
          "name": "paymentDate",
          "type": "uint256"
        },
        {
          "internalType": "uint256",
          "name": "amount",
          "type": "uint256"
        }
      ],
      "stateMutability": "view",
      "type": "function"
    },
    {
      "inputs": [
        {
          "internalType": "address",
          "name": "",
          "type": "address"
        }
      ],
      "name": "users",
      "outputs": [
        {
          "internalType": "address",
          "name": "walletAddress",
          "type": "address"
        },
        {
          "internalType": "string",
          "name": "name",
          "type": "string"
        },
        {
          "internalType": "string",
          "name": "email",
          "type": "string"
        },
        {
          "internalType": "string",
          "name": "phoneNumber",
          "type": "string"
        }
      ],
      "stateMutability": "view",
      "type": "function"
    },
    {
      "inputs": [],
      "name": "verifyPaymentsAtMidnight",
      "outputs": [],
      "stateMutability": "nonpayable",
      "type": "function"
    }
  ],
  "bytecode": "0x608060405234801561001057600080fd5b50613b75806100206000396000f3fe60806040526004361061011f5760003560e01c8063bed34bba116100a0578063dbe32b6a11610064578063dbe32b6a14610450578063e2c5ade614610479578063e9f71d5b146104b6578063f1f99b75146104f5578063fc7d8891146105325761011f565b8063bed34bba14610345578063c47c232714610382578063c4d9452f146103bf578063cc644f96146103e8578063da8cac5a146104135761011f565b80634750421e116100e75780634750421e1461023957806352c5f372146102625780635e09eea11461028b578063884a7ce3146102c8578063a87430ba146103055761011f565b80631063312c146101245780632b8e81311461013b5780632f6e47741461017e5780633c5ad43b146101bd578063438c3aff146101fc575b600080fd5b34801561013057600080fd5b5061013961054e565b005b34801561014757600080fd5b50610162600480360381019061015d919061264b565b6107b5565b604051610175979695949392919061276d565b60405180910390f35b34801561018a57600080fd5b506101a560048036038101906101a0919061283b565b6108d5565b6040516101b49392919061287b565b60405180910390f35b3480156101c957600080fd5b506101e460048036038101906101df919061283b565b61093c565b6040516101f3939291906128b2565b60405180910390f35b34801561020857600080fd5b50610223600480360381019061021e91906128f0565b610a2b565b604051610230919061291d565b60405180910390f35b34801561024557600080fd5b50610260600480360381019061025b919061293f565b610ad7565b005b34801561026e57600080fd5b50610289600480360381019061028491906129ae565b610c59565b005b34801561029757600080fd5b506102b260048036038101906102ad9190612a26565b610cc2565b6040516102bf9190612a53565b60405180910390f35b3480156102d457600080fd5b506102ef60048036038101906102ea919061264b565b610dda565b6040516102fc919061291d565b60405180910390f35b34801561031157600080fd5b5061032c60048036038101906103279190612a26565b610f85565b60405161033c9493929190612a6e565b60405180910390f35b34801561035157600080fd5b5061036c600480360381019061036791906129ae565b61116d565b6040516103799190612ae3565b60405180910390f35b34801561038e57600080fd5b506103a960048036038101906103a4919061264b565b6111c6565b6040516103b69190612c02565b60405180910390f35b3480156103cb57600080fd5b506103e660048036038101906103e19190612c24565b61141e565b005b3480156103f457600080fd5b506103fd611581565b60405161040a9190612d55565b60405180910390f35b34801561041f57600080fd5b5061043a60048036038101906104359190612a26565b611586565b6040516104479190612ed5565b60405180910390f35b34801561045c57600080fd5b5061047760048036038101906104729190612ef7565b6116c0565b005b34801561048557600080fd5b506104a0600480360381019061049b919061264b565b611bc9565b6040516104ad91906130b2565b60405180910390f35b3480156104c257600080fd5b506104dd60048036038101906104d891906130d4565b611da0565b6040516104ec93929190613130565b60405180910390f35b34801561050157600080fd5b5061051c60048036038101906105179190612a26565b611e85565b6040516105299190612d55565b60405180910390f35b61054c6004803603810190610547919061264b565b6121ba565b005b60005b6000805490508110156107b25760008082815481106105735761057261316e565b5b906000526020600020018054610588906131cc565b80601f01602080910402602001604051908101604052809291908181526020018280546105b4906131cc565b80156106015780601f106105d657610100808354040283529160200191610601565b820191906000526020600020905b8154815290600101906020018083116105e457829003601f168201915b50505050509050600060028260405161061a9190613239565b90815260200160405180910390209050600060038360405161063c9190613239565b9081526020016040518091039020905060008082805490509050600061066685600501544261236d565b905060008214801561067757508082105b156106ce57600061068c8660050154426123b2565b905061069781612412565b93506106c88660010160009054906101000a900473ffffffffffffffffffffffffffffffffffffffff168589610ad7565b5061079f565b808203610715576106df6000612412565b92506107108560010160009054906101000a900473ffffffffffffffffffffffffffffffffffffffff168488610ad7565b61079e565b8082101561079d5760008460018461072d919061327f565b8154811061073e5761073d61316e565b5b9060005260206000209060030201600101549050600061075e82426123b2565b905061076981612412565b945061079a8760010160009054906101000a900473ffffffffffffffffffffffffffffffffffffffff16868a610ad7565b50505b5b5b5050505050508080600101915050610551565b50565b6002818051602081018201805184825260208301602085012081835280955050505050506000915090508060000180546107ee906131cc565b80601f016020809104026020016040519081016040528092919081815260200182805461081a906131cc565b80156108675780601f1061083c57610100808354040283529160200191610867565b820191906000526020600020905b81548152906001019060200180831161084a57829003601f168201915b5050505050908060010160009054906101000a900473ffffffffffffffffffffffffffffffffffffffff16908060020160009054906101000a900473ffffffffffffffffffffffffffffffffffffffff16908060030154908060040154908060050154908060060154905087565b600460205281600052604060002081815481106108f157600080fd5b9060005260206000209060030201600091509150508060000160009054906101000a900473ffffffffffffffffffffffffffffffffffffffff16908060010154908060020154905083565b6006602052816000526040600020818154811061095857600080fd5b90600052602060002090600302016000915091505080600001805461097c906131cc565b80601f01602080910402602001604051908101604052809291908181526020018280546109a8906131cc565b80156109f55780601f106109ca576101008083540402835291602001916109f5565b820191906000526020600020905b8154815290600101906020018083116109d857829003601f168201915b5050505050908060010160009054906101000a900473ffffffffffffffffffffffffffffffffffffffff16908060020154905083565b60008181548110610a3b57600080fd5b906000526020600020016000915090508054610a56906131cc565b80601f0160208091040260200160405190810160405280929190818152602001828054610a82906131cc565b8015610acf5780601f10610aa457610100808354040283529160200191610acf565b820191906000526020600020905b815481529060010190602001808311610ab257829003601f168201915b505050505081565b6000600782604051610ae99190613239565b908152602001604051809103902090508281600201819055506000600660008673ffffffffffffffffffffffffffffffffffffffff1673ffffffffffffffffffffffffffffffffffffffff168152602001908152602001600020905060005b8180549050811015610c51576000610c0c838381548110610b6c57610b6b61316e565b5b90600052602060002090600302016000018054610b88906131cc565b80601f0160208091040260200160405190810160405280929190818152602001828054610bb4906131cc565b8015610c015780601f10610bd657610100808354040283529160200191610c01565b820191906000526020600020905b815481529060010190602001808311610be457829003601f168201915b50505050508661116d565b90508015610c435785838381548110610c2857610c2761316e565b5b90600052602060002090600302016002018190555050610c51565b508080600101915050610b48565b505050505050565b6000610c648361245f565b9050604051806040016040528084815260200183815250600560008381526020019081526020016000206000820151816000019081610ca3919061345f565b506020820151816001019081610cb9919061345f565b50905050505050565b600080600660008473ffffffffffffffffffffffffffffffffffffffff1673ffffffffffffffffffffffffffffffffffffffff16815260200190815260200160002090506000818054905011610d4d576040517f08c379a0000000000000000000000000000000000000000000000000000000008152600401610d44906135a3565b60405180910390fd5b6000805b8280549050811015610d9c57828181548110610d7057610d6f61316e565b5b90600052602060002090600302016002015482610d8d91906135c3565b91508080600101915050610d51565b506000828054905003610db457600092505050610dd5565b600a828054905082610dc69190613626565b610dd09190613657565b925050505b919050565b60606000610de78361245f565b9050600060056000838152602001908152602001600020604051806040016040529081600082018054610e19906131cc565b80601f0160208091040260200160405190810160405280929190818152602001828054610e45906131cc565b8015610e925780601f10610e6757610100808354040283529160200191610e92565b820191906000526020600020905b815481529060010190602001808311610e7557829003601f168201915b50505050508152602001600182018054610eab906131cc565b80601f0160208091040260200160405190810160405280929190818152602001828054610ed7906131cc565b8015610f245780601f10610ef957610100808354040283529160200191610f24565b820191906000526020600020905b815481529060010190602001808311610f0757829003601f168201915b5050505050815250509050600081600001515103610f77576040517f08c379a0000000000000000000000000000000000000000000000000000000008152600401610f6e906136e5565b60405180910390fd5b806020015192505050919050565b60016020528060005260406000206000915090508060000160009054906101000a900473ffffffffffffffffffffffffffffffffffffffff1690806001018054610fce906131cc565b80601f0160208091040260200160405190810160405280929190818152602001828054610ffa906131cc565b80156110475780601f1061101c57610100808354040283529160200191611047565b820191906000526020600020905b81548152906001019060200180831161102a57829003601f168201915b50505050509080600201805461105c906131cc565b80601f0160208091040260200160405190810160405280929190818152602001828054611088906131cc565b80156110d55780601f106110aa576101008083540402835291602001916110d5565b820191906000526020600020905b8154815290600101906020018083116110b857829003601f168201915b5050505050908060030180546110ea906131cc565b80601f0160208091040260200160405190810160405280929190818152602001828054611116906131cc565b80156111635780601f1061113857610100808354040283529160200191611163565b820191906000526020600020905b81548152906001019060200180831161114657829003601f168201915b5050505050905084565b6000816040516020016111809190613239565b60405160208183030381529060405280519060200120836040516020016111a79190613239565b6040516020818303038152906040528051906020012014905092915050565b6111ce612488565b6000825111611212576040517f08c379a000000000000000000000000000000000000000000000000000000000815260040161120990613751565b60405180910390fd5b60006002836040516112249190613239565b90815260200160405180910390206000018054611240906131cc565b905011611282576040517f08c379a0000000000000000000000000000000000000000000000000000000008152600401611279906137bd565b60405180910390fd5b60006002836040516112949190613239565b90815260200160405180910390206040518060e00160405290816000820180546112bd906131cc565b80601f01602080910402602001604051908101604052809291908181526020018280546112e9906131cc565b80156113365780601f1061130b57610100808354040283529160200191611336565b820191906000526020600020905b81548152906001019060200180831161131957829003601f168201915b505050505081526020016001820160009054906101000a900473ffffffffffffffffffffffffffffffffffffffff1673ffffffffffffffffffffffffffffffffffffffff1673ffffffffffffffffffffffffffffffffffffffff1681526020016002820160009054906101000a900473ffffffffffffffffffffffffffffffffffffffff1673ffffffffffffffffffffffffffffffffffffffff1673ffffffffffffffffffffffffffffffffffffffff168152602001600382015481526020016004820154815260200160058201548152602001600682015481525050905080915050919050565b6000835111611462576040517f08c379a000000000000000000000000000000000000000000000000000000000815260040161145990613751565b60405180910390fd5b600082116114a5576040517f08c379a000000000000000000000000000000000000000000000000000000000815260040161149c90613829565b60405180910390fd5b600081116114e8576040517f08c379a00000000000000000000000000000000000000000000000000000000081526004016114df90613895565b60405180910390fd5b600060405180606001604052808581526020018481526020018381525090506003846040516115179190613239565b90815260200160405180910390208190806001815401808255809150506001900390600052602060002090600302016000909190919091506000820151816000019081611564919061345f565b506020820151816001015560408201518160020155505050505050565b606090565b6060600061159383611e85565b905060008151036115fb57600067ffffffffffffffff8111156115b9576115b8612520565b5b6040519080825280602002602001820160405280156115f257816020015b6115df612488565b8152602001906001900390816115d75790505b509150506116bb565b6000815167ffffffffffffffff81111561161857611617612520565b5b60405190808252806020026020018201604052801561165157816020015b61163e612488565b8152602001906001900390816116365790505b50905060005b82518110156116b45760008382815181106116755761167461316e565b5b60200260200101519050611688816111c6565b83838151811061169b5761169a61316e565b5b6020026020010181905250508080600101915050611657565b5080925050505b919050565b6000865111611704576040517f08c379a00000000000000000000000000000000000000000000000000000000081526004016116fb90613751565b60405180910390fd5b600073ffffffffffffffffffffffffffffffffffffffff168573ffffffffffffffffffffffffffffffffffffffff1603611773576040517f08c379a000000000000000000000000000000000000000000000000000000000815260040161176a90613901565b60405180910390fd5b600073ffffffffffffffffffffffffffffffffffffffff168473ffffffffffffffffffffffffffffffffffffffff16036117e2576040517f08c379a00000000000000000000000000000000000000000000000000000000081526004016117d99061396d565b60405180910390fd5b60008311611825576040517f08c379a000000000000000000000000000000000000000000000000000000000815260040161181c90613895565b60405180910390fd5b60008211611868576040517f08c379a000000000000000000000000000000000000000000000000000000000815260040161185f90613829565b60405180910390fd5b600081116118ab576040517f08c379a00000000000000000000000000000000000000000000000000000000081526004016118a2906139d9565b60405180910390fd5b60006002876040516118bd9190613239565b908152602001604051809103902060000180546118d9906131cc565b90501461191b576040517f08c379a000000000000000000000000000000000000000000000000000000000815260040161191290613a45565b60405180910390fd5b600060028760405161192d9190613239565b908152602001604051809103902090508681600001908161194e919061345f565b50858160010160006101000a81548173ffffffffffffffffffffffffffffffffffffffff021916908373ffffffffffffffffffffffffffffffffffffffff160217905550848160020160006101000a81548173ffffffffffffffffffffffffffffffffffffffff021916908373ffffffffffffffffffffffffffffffffffffffff160217905550838160030181905550828160040181905550818160050181905550428160060181905550600087908060018154018082558091505060019003906000526020600020016000909190919091509081611a2d919061345f565b50600060405180606001604052808981526020018873ffffffffffffffffffffffffffffffffffffffff168152602001600a8152509050600660008873ffffffffffffffffffffffffffffffffffffffff1673ffffffffffffffffffffffffffffffffffffffff1681526020019081526020016000208190806001815401808255809150506001900390600052602060002090600302016000909190919091506000820151816000019081611ae2919061345f565b5060208201518160010160006101000a81548173ffffffffffffffffffffffffffffffffffffffff021916908373ffffffffffffffffffffffffffffffffffffffff16021790555060408201518160020155505080600789604051611b479190613239565b90815260200160405180910390206000820151816000019081611b6a919061345f565b5060208201518160010160006101000a81548173ffffffffffffffffffffffffffffffffffffffff021916908373ffffffffffffffffffffffffffffffffffffffff160217905550604082015181600201559050505050505050505050565b60606000825111611c0f576040517f08c379a0000000000000000000000000000000000000000000000000000000008152600401611c0690613751565b60405180910390fd5b6000600283604051611c219190613239565b90815260200160405180910390206000018054611c3d906131cc565b905011611c7f576040517f08c379a0000000000000000000000000000000000000000000000000000000008152600401611c76906137bd565b60405180910390fd5b600382604051611c8f9190613239565b9081526020016040518091039020805480602002602001604051908101604052809291908181526020016000905b82821015611d955783829060005260206000209060030201604051806060016040529081600082018054611cf0906131cc565b80601f0160208091040260200160405190810160405280929190818152602001828054611d1c906131cc565b8015611d695780601f10611d3e57610100808354040283529160200191611d69565b820191906000526020600020905b815481529060010190602001808311611d4c57829003601f168201915b505050505081526020016001820154815260200160028201548152505081526020019060010190611cbd565b505050509050919050565b6003828051602081018201805184825260208301602085012081835280955050505050508181548110611dd257600080fd5b906000526020600020906003020160009150915050806000018054611df6906131cc565b80601f0160208091040260200160405190810160405280929190818152602001828054611e22906131cc565b8015611e6f5780601f10611e4457610100808354040283529160200191611e6f565b820191906000526020600020905b815481529060010190602001808311611e5257829003601f168201915b5050505050908060010154908060020154905083565b60606000808054905067ffffffffffffffff811115611ea757611ea6612520565b5b604051908082528060200260200182016040528015611eda57816020015b6060815260200190600190039081611ec55790505b5090506000805b6000805490508110156120a9576000808281548110611f0357611f0261316e565b5b906000526020600020018054611f18906131cc565b80601f0160208091040260200160405190810160405280929190818152602001828054611f44906131cc565b8015611f915780601f10611f6657610100808354040283529160200191611f91565b820191906000526020600020905b815481529060010190602001808311611f7457829003601f168201915b505050505090506000600282604051611faa9190613239565b908152602001604051809103902090508673ffffffffffffffffffffffffffffffffffffffff168160010160009054906101000a900473ffffffffffffffffffffffffffffffffffffffff1673ffffffffffffffffffffffffffffffffffffffff16148061206757508673ffffffffffffffffffffffffffffffffffffffff168160020160009054906101000a900473ffffffffffffffffffffffffffffffffffffffff1673ffffffffffffffffffffffffffffffffffffffff16145b1561209a57818585815181106120805761207f61316e565b5b6020026020010181905250838061209690613a65565b9450505b50508080600101915050611ee1565b506000810361210a57600067ffffffffffffffff8111156120cd576120cc612520565b5b60405190808252806020026020018201604052801561210057816020015b60608152602001906001900390816120eb5790505b50925050506121b5565b60008167ffffffffffffffff81111561212657612125612520565b5b60405190808252806020026020018201604052801561215957816020015b60608152602001906001900390816121445790505b50905060005b828110156121ad5783818151811061217a5761217961316e565b5b60200260200101518282815181106121955761219461316e565b5b6020026020010181905250808060010191505061215f565b508093505050505b919050565b60008151116121fe576040517f08c379a00000000000000000000000000000000000000000000000000000000081526004016121f590613751565b60405180910390fd5b60006002826040516122109190613239565b9081526020016040518091039020600001805461222c906131cc565b90501161226e576040517f08c379a0000000000000000000000000000000000000000000000000000000008152600401612265906137bd565b60405180910390fd5b60006002826040516122809190613239565b90815260200160405180910390206003015490508034146122d6576040517f08c379a00000000000000000000000000000000000000000000000000000000081526004016122cd90613b1f565b60405180910390fd5b6002826040516122e69190613239565b908152602001604051809103902060020160009054906101000a900473ffffffffffffffffffffffffffffffffffffffff1673ffffffffffffffffffffffffffffffffffffffff166108fc349081150290604051600060405180830381858888f1935050505015801561235d573d6000803e3d6000fd5b5061236982428361141e565b5050565b600082821015612384576000839050829350809250505b600062278d0090506000848461239a919061327f565b905081816123a89190613626565b9250505092915050565b600080838310156123ce5782846123c9919061327f565b6123db565b83836123da919061327f565b5b90506000620151809050806002826123f39190613626565b836123fe91906135c3565b6124089190613626565b9250505092915050565b600080820361242457600a905061245a565b6000821180156124355750605a8211155b15612443576005905061245a565b605a821115612455576000905061245a565b600090505b919050565b600080829050600081510361247a576000801b915050612483565b60208301519150505b919050565b6040518060e0016040528060608152602001600073ffffffffffffffffffffffffffffffffffffffff168152602001600073ffffffffffffffffffffffffffffffffffffffff168152602001600081526020016000815260200160008152602001600081525090565b6000604051905090565b600080fd5b600080fd5b600080fd5b600080fd5b6000601f19601f8301169050919050565b7f4e487b7100000000000000000000000000000000000000000000000000000000600052604160045260246000fd5b6125588261250f565b810181811067ffffffffffffffff8211171561257757612576612520565b5b80604052505050565b600061258a6124f1565b9050612596828261254f565b919050565b600067ffffffffffffffff8211156125b6576125b5612520565b5b6125bf8261250f565b9050602081019050919050565b82818337600083830152505050565b60006125ee6125e98461259b565b612580565b90508281526020810184848401111561260a5761260961250a565b5b6126158482856125cc565b509392505050565b600082601f83011261263257612631612505565b5b81356126428482602086016125db565b91505092915050565b600060208284031215612661576126606124fb565b5b600082013567ffffffffffffffff81111561267f5761267e612500565b5b61268b8482850161261d565b91505092915050565b600081519050919050565b600082825260208201905092915050565b60005b838110156126ce5780820151818401526020810190506126b3565b60008484015250505050565b60006126e582612694565b6126ef818561269f565b93506126ff8185602086016126b0565b6127088161250f565b840191505092915050565b600073ffffffffffffffffffffffffffffffffffffffff82169050919050565b600061273e82612713565b9050919050565b61274e81612733565b82525050565b6000819050919050565b61276781612754565b82525050565b600060e0820190508181036000830152612787818a6126da565b90506127966020830189612745565b6127a36040830188612745565b6127b0606083018761275e565b6127bd608083018661275e565b6127ca60a083018561275e565b6127d760c083018461275e565b98975050505050505050565b6127ec81612733565b81146127f757600080fd5b50565b600081359050612809816127e3565b92915050565b61281881612754565b811461282357600080fd5b50565b6000813590506128358161280f565b92915050565b60008060408385031215612852576128516124fb565b5b6000612860858286016127fa565b925050602061287185828601612826565b9150509250929050565b60006060820190506128906000830186612745565b61289d602083018561275e565b6128aa604083018461275e565b949350505050565b600060608201905081810360008301526128cc81866126da565b90506128db6020830185612745565b6128e8604083018461275e565b949350505050565b600060208284031215612906576129056124fb565b5b600061291484828501612826565b91505092915050565b6000602082019050818103600083015261293781846126da565b905092915050565b600080600060608486031215612958576129576124fb565b5b6000612966868287016127fa565b935050602061297786828701612826565b925050604084013567ffffffffffffffff81111561299857612997612500565b5b6129a48682870161261d565b9150509250925092565b600080604083850312156129c5576129c46124fb565b5b600083013567ffffffffffffffff8111156129e3576129e2612500565b5b6129ef8582860161261d565b925050602083013567ffffffffffffffff811115612a1057612a0f612500565b5b612a1c8582860161261d565b9150509250929050565b600060208284031215612a3c57612a3b6124fb565b5b6000612a4a848285016127fa565b91505092915050565b6000602082019050612a68600083018461275e565b92915050565b6000608082019050612a836000830187612745565b8181036020830152612a9581866126da565b90508181036040830152612aa981856126da565b90508181036060830152612abd81846126da565b905095945050505050565b60008115159050919050565b612add81612ac8565b82525050565b6000602082019050612af86000830184612ad4565b92915050565b600082825260208201905092915050565b6000612b1a82612694565b612b248185612afe565b9350612b348185602086016126b0565b612b3d8161250f565b840191505092915050565b612b5181612733565b82525050565b612b6081612754565b82525050565b600060e0830160008301518482036000860152612b838282612b0f565b9150506020830151612b986020860182612b48565b506040830151612bab6040860182612b48565b506060830151612bbe6060860182612b57565b506080830151612bd16080860182612b57565b5060a0830151612be460a0860182612b57565b5060c0830151612bf760c0860182612b57565b508091505092915050565b60006020820190508181036000830152612c1c8184612b66565b905092915050565b600080600060608486031215612c3d57612c3c6124fb565b5b600084013567ffffffffffffffff811115612c5b57612c5a612500565b5b612c678682870161261d565b9350506020612c7886828701612826565b9250506040612c8986828701612826565b9150509250925092565b600081519050919050565b600082825260208201905092915050565b6000819050602082019050919050565b6000612ccb8383612b0f565b905092915050565b6000602082019050919050565b6000612ceb82612c93565b612cf58185612c9e565b935083602082028501612d0785612caf565b8060005b85811015612d435784840389528151612d248582612cbf565b9450612d2f83612cd3565b925060208a01995050600181019050612d0b565b50829750879550505050505092915050565b60006020820190508181036000830152612d6f8184612ce0565b905092915050565b600081519050919050565b600082825260208201905092915050565b6000819050602082019050919050565b600060e0830160008301518482036000860152612dc08282612b0f565b9150506020830151612dd56020860182612b48565b506040830151612de86040860182612b48565b506060830151612dfb6060860182612b57565b506080830151612e0e6080860182612b57565b5060a0830151612e2160a0860182612b57565b5060c0830151612e3460c0860182612b57565b508091505092915050565b6000612e4b8383612da3565b905092915050565b6000602082019050919050565b6000612e6b82612d77565b612e758185612d82565b935083602082028501612e8785612d93565b8060005b85811015612ec35784840389528151612ea48582612e3f565b9450612eaf83612e53565b925060208a01995050600181019050612e8b565b50829750879550505050505092915050565b60006020820190508181036000830152612eef8184612e60565b905092915050565b60008060008060008060c08789031215612f1457612f136124fb565b5b600087013567ffffffffffffffff811115612f3257612f31612500565b5b612f3e89828a0161261d565b9650506020612f4f89828a016127fa565b9550506040612f6089828a016127fa565b9450506060612f7189828a01612826565b9350506080612f8289828a01612826565b92505060a0612f9389828a01612826565b9150509295509295509295565b600081519050919050565b600082825260208201905092915050565b6000819050602082019050919050565b60006060830160008301518482036000860152612fe98282612b0f565b9150506020830151612ffe6020860182612b57565b5060408301516130116040860182612b57565b508091505092915050565b60006130288383612fcc565b905092915050565b6000602082019050919050565b600061304882612fa0565b6130528185612fab565b93508360208202850161306485612fbc565b8060005b858110156130a05784840389528151613081858261301c565b945061308c83613030565b925060208a01995050600181019050613068565b50829750879550505050505092915050565b600060208201905081810360008301526130cc818461303d565b905092915050565b600080604083850312156130eb576130ea6124fb565b5b600083013567ffffffffffffffff81111561310957613108612500565b5b6131158582860161261d565b925050602061312685828601612826565b9150509250929050565b6000606082019050818103600083015261314a81866126da565b9050613159602083018561275e565b613166604083018461275e565b949350505050565b7f4e487b7100000000000000000000000000000000000000000000000000000000600052603260045260246000fd5b7f4e487b7100000000000000000000000000000000000000000000000000000000600052602260045260246000fd5b600060028204905060018216806131e457607f821691505b6020821081036131f7576131f661319d565b5b50919050565b600081905092915050565b600061321382612694565b61321d81856131fd565b935061322d8185602086016126b0565b80840191505092915050565b60006132458284613208565b915081905092915050565b7f4e487b7100000000000000000000000000000000000000000000000000000000600052601160045260246000fd5b600061328a82612754565b915061329583612754565b92508282039050818111156132ad576132ac613250565b5b92915050565b60008190508160005260206000209050919050565b60006020601f8301049050919050565b600082821b905092915050565b6000600883026133157fffffffffffffffffffffffffffffffffffffffffffffffffffffffffffffffff826132d8565b61331f86836132d8565b95508019841693508086168417925050509392505050565b6000819050919050565b600061335c61335761335284612754565b613337565b612754565b9050919050565b6000819050919050565b61337683613341565b61338a61338282613363565b8484546132e5565b825550505050565b600090565b61339f613392565b6133aa81848461336d565b505050565b5b818110156133ce576133c3600082613397565b6001810190506133b0565b5050565b601f821115613413576133e4816132b3565b6133ed846132c8565b810160208510156133fc578190505b613410613408856132c8565b8301826133af565b50505b505050565b600082821c905092915050565b600061343660001984600802613418565b1980831691505092915050565b600061344f8383613425565b9150826002028217905092915050565b61346882612694565b67ffffffffffffffff81111561348157613480612520565b5b61348b82546131cc565b6134968282856133d2565b600060209050601f8311600181146134c957600084156134b7578287015190505b6134c18582613443565b865550613529565b601f1984166134d7866132b3565b60005b828110156134ff578489015182556001820191506020850194506020810190506134da565b8683101561351c5784890151613518601f891682613425565b8355505b6001600288020188555050505b505050505050565b7f4e6f2074727573742073636f72657320666f756e6420666f722074686973207760008201527f616c6c6574000000000000000000000000000000000000000000000000000000602082015250565b600061358d60258361269f565b915061359882613531565b604082019050919050565b600060208201905081810360008301526135bc81613580565b9050919050565b60006135ce82612754565b91506135d983612754565b92508282019050808211156135f1576135f0613250565b5b92915050565b7f4e487b7100000000000000000000000000000000000000000000000000000000600052601260045260246000fd5b600061363182612754565b915061363c83612754565b92508261364c5761364b6135f7565b5b828204905092915050565b600061366282612754565b915061366d83612754565b925082820261367b81612754565b9150828204841483151761369257613691613250565b5b5092915050565b7f436f6e747261637420494420646f6573206e6f742065786973742e0000000000600082015250565b60006136cf601b8361269f565b91506136da82613699565b602082019050919050565b600060208201905081810360008301526136fe816136c2565b9050919050565b7f436f6e7472616374204944206973207265717569726564000000000000000000600082015250565b600061373b60178361269f565b915061374682613705565b602082019050919050565b6000602082019050818103600083015261376a8161372e565b9050919050565b7f436f6e747261637420646f6573206e6f74206578697374000000000000000000600082015250565b60006137a760178361269f565b91506137b282613771565b602082019050919050565b600060208201905081810360008301526137d68161379a565b9050919050565b7f5061796d656e742064617465206973206e6f742076616c696400000000000000600082015250565b600061381360198361269f565b915061381e826137dd565b602082019050919050565b6000602082019050818103600083015261384281613806565b9050919050565b7f416d6f756e74206d7573742062652067726561746572207468616e207a65726f600082015250565b600061387f60208361269f565b915061388a82613849565b602082019050919050565b600060208201905081810360008301526138ae81613872565b9050919050565b7f46726f6d2077616c6c6574206164647265737320697320726571756972656400600082015250565b60006138eb601f8361269f565b91506138f6826138b5565b602082019050919050565b6000602082019050818103600083015261391a816138de565b9050919050565b7f546f2077616c6c65742061646472657373206973207265717569726564000000600082015250565b6000613957601d8361269f565b915061396282613921565b602082019050919050565b600060208201905081810360008301526139868161394a565b9050919050565b7f53746172742064617465206973206e6f742076616c6964000000000000000000600082015250565b60006139c360178361269f565b91506139ce8261398d565b602082019050919050565b600060208201905081810360008301526139f2816139b6565b9050919050565b7f436f6e747261637420616c726561647920657869737473000000000000000000600082015250565b6000613a2f60178361269f565b9150613a3a826139f9565b602082019050919050565b60006020820190508181036000830152613a5e81613a22565b9050919050565b6000613a7082612754565b91507fffffffffffffffffffffffffffffffffffffffffffffffffffffffffffffffff8203613aa257613aa1613250565b5b600182019050919050565b7f416d6f756e742073656e74206973206e6f74206d61746368696e67207468652060008201527f7265717565737420616d6f756e74000000000000000000000000000000000000602082015250565b6000613b09602e8361269f565b9150613b1482613aad565b604082019050919050565b60006020820190508181036000830152613b3881613afc565b905091905056fea2646970667358221220c8f89f61f3009b727fce82c4dc1bd448bc1c5b9dffc35240c9e5f913207361a664736f6c63430008180033",
  "linkReferences": {},
  "deployedLinkReferences": {}
}